{
  "_format": "hh-sol-artifact-1",
  "contractName": "NFTMarket",
  "sourceName": "contracts/Market.sol",
  "abi": [
    {
      "inputs": [],
      "stateMutability": "nonpayable",
      "type": "constructor"
    },
    {
      "anonymous": false,
      "inputs": [
        {
          "indexed": true,
          "internalType": "uint256",
          "name": "itemId",
          "type": "uint256"
        },
        {
          "indexed": true,
          "internalType": "address",
          "name": "nftContract",
          "type": "address"
        },
        {
          "indexed": true,
          "internalType": "uint256",
          "name": "tokenId",
          "type": "uint256"
        },
        {
          "indexed": false,
          "internalType": "address",
          "name": "creator",
          "type": "address"
        },
        {
          "indexed": false,
          "internalType": "address",
          "name": "owner",
          "type": "address"
        },
        {
          "indexed": false,
          "internalType": "address",
          "name": "SIO",
          "type": "address"
        },
        {
          "indexed": false,
          "internalType": "uint256",
          "name": "price",
          "type": "uint256"
        },
        {
          "indexed": false,
          "internalType": "uint256",
          "name": "royalty",
          "type": "uint256"
        },
        {
          "indexed": false,
          "internalType": "uint256",
          "name": "royaltyToSIO",
          "type": "uint256"
        },
        {
          "indexed": false,
          "internalType": "bool",
          "name": "sold",
          "type": "bool"
        }
      ],
      "name": "MarketItemCreated",
      "type": "event"
    },
    {
      "inputs": [
        {
          "internalType": "address",
          "name": "nftContract",
          "type": "address"
        },
        {
          "internalType": "uint256",
          "name": "tokenId",
          "type": "uint256"
        },
        {
          "internalType": "uint256",
          "name": "price",
          "type": "uint256"
        },
        {
          "internalType": "uint256",
          "name": "royalty",
          "type": "uint256"
        },
        {
          "internalType": "uint256",
          "name": "royaltySIO",
          "type": "uint256"
        },
        {
          "internalType": "address",
          "name": "SIO",
          "type": "address"
        }
      ],
      "name": "createMarketItem",
      "outputs": [],
      "stateMutability": "payable",
      "type": "function"
    },
    {
      "inputs": [
        {
          "internalType": "address",
          "name": "nftContract",
          "type": "address"
        },
        {
          "internalType": "uint256",
          "name": "itemId",
          "type": "uint256"
        }
      ],
      "name": "createMarketSale",
      "outputs": [],
      "stateMutability": "payable",
      "type": "function"
    },
    {
      "inputs": [],
      "name": "fetchItemsCreated",
      "outputs": [
        {
          "components": [
            {
              "internalType": "uint256",
              "name": "itemId",
              "type": "uint256"
            },
            {
              "internalType": "address",
              "name": "nftContract",
              "type": "address"
            },
            {
              "internalType": "uint256",
              "name": "tokenId",
              "type": "uint256"
            },
            {
              "internalType": "address payable",
              "name": "creator",
              "type": "address"
            },
            {
              "internalType": "address payable",
              "name": "owner",
              "type": "address"
            },
            {
              "internalType": "address payable",
              "name": "SIO",
              "type": "address"
            },
            {
              "internalType": "uint256",
              "name": "price",
              "type": "uint256"
            },
            {
              "internalType": "uint256",
              "name": "royalty",
              "type": "uint256"
            },
            {
              "internalType": "uint256",
              "name": "royaltyToSIO",
              "type": "uint256"
            },
            {
              "internalType": "bool",
              "name": "sold",
              "type": "bool"
            }
          ],
          "internalType": "struct NFTMarket.MarketItem[]",
          "name": "",
          "type": "tuple[]"
        }
      ],
      "stateMutability": "view",
      "type": "function"
    },
    {
      "inputs": [],
      "name": "fetchMarketItems",
      "outputs": [
        {
          "components": [
            {
              "internalType": "uint256",
              "name": "itemId",
              "type": "uint256"
            },
            {
              "internalType": "address",
              "name": "nftContract",
              "type": "address"
            },
            {
              "internalType": "uint256",
              "name": "tokenId",
              "type": "uint256"
            },
            {
              "internalType": "address payable",
              "name": "creator",
              "type": "address"
            },
            {
              "internalType": "address payable",
              "name": "owner",
              "type": "address"
            },
            {
              "internalType": "address payable",
              "name": "SIO",
              "type": "address"
            },
            {
              "internalType": "uint256",
              "name": "price",
              "type": "uint256"
            },
            {
              "internalType": "uint256",
              "name": "royalty",
              "type": "uint256"
            },
            {
              "internalType": "uint256",
              "name": "royaltyToSIO",
              "type": "uint256"
            },
            {
              "internalType": "bool",
              "name": "sold",
              "type": "bool"
            }
          ],
          "internalType": "struct NFTMarket.MarketItem[]",
          "name": "",
          "type": "tuple[]"
        }
      ],
      "stateMutability": "view",
      "type": "function"
    },
    {
      "inputs": [],
      "name": "fetchMyNFTs",
      "outputs": [
        {
          "components": [
            {
              "internalType": "uint256",
              "name": "itemId",
              "type": "uint256"
            },
            {
              "internalType": "address",
              "name": "nftContract",
              "type": "address"
            },
            {
              "internalType": "uint256",
              "name": "tokenId",
              "type": "uint256"
            },
            {
              "internalType": "address payable",
              "name": "creator",
              "type": "address"
            },
            {
              "internalType": "address payable",
              "name": "owner",
              "type": "address"
            },
            {
              "internalType": "address payable",
              "name": "SIO",
              "type": "address"
            },
            {
              "internalType": "uint256",
              "name": "price",
              "type": "uint256"
            },
            {
              "internalType": "uint256",
              "name": "royalty",
              "type": "uint256"
            },
            {
              "internalType": "uint256",
              "name": "royaltyToSIO",
              "type": "uint256"
            },
            {
              "internalType": "bool",
              "name": "sold",
              "type": "bool"
            }
          ],
          "internalType": "struct NFTMarket.MarketItem[]",
          "name": "",
          "type": "tuple[]"
        }
      ],
      "stateMutability": "view",
      "type": "function"
    }
  ],
  "bytecode": "0x6080604052600060045534801561001557600080fd5b506001600055600380546001600160a01b03191633179055610f8d8061003c6000396000f3fe60806040526004361061004a5760003560e01c80630f08efe01461004f578063202e37401461007a5780638222944f1461008f578063c23b139e146100a4578063f064c32e146100b7575b600080fd5b34801561005b57600080fd5b506100646100cc565b6040516100719190610e01565b60405180910390f35b34801561008657600080fd5b50610064610295565b6100a261009d366004610daa565b61049d565b005b6100a26100b2366004610d81565b61079a565b3480156100c357600080fd5b50610064610ae1565b606060006100da6001610ce9565b905060006100e86002610ce9565b6100f26001610ce9565b6100fc9190610f0f565b90506000808267ffffffffffffffff81111561012857634e487b7160e01b600052604160045260246000fd5b60405190808252806020026020018201604052801561016157816020015b61014e610cf1565b8152602001906001900390816101465790505b50905060005b8481101561028c576005600061017e836001610eb8565b815260208101919091526040016000206009015460ff1661027a5760006101a6826001610eb8565b6000818152600560208181526040928390208351610140810185528154815260018201546001600160a01b0390811693820193909352600282015494810194909452600381015482166060850152600481015482166080850152918201541660a0830152600681015460c0830152600781015460e08301526008810154610100830152600981015460ff16151561012083015285519293509185908790811061025f57634e487b7160e01b600052603260045260246000fd5b6020908102919091010152610275600186610eb8565b945050505b8061028481610f26565b915050610167565b50935050505090565b606060006102a36001610ce9565b905060008060005b838110156103065733600560006102c3846001610eb8565b81526020810191909152604001600020600401546001600160a01b031614156102f4576102f1600184610eb8565b92505b806102fe81610f26565b9150506102ab565b5060008267ffffffffffffffff81111561033057634e487b7160e01b600052604160045260246000fd5b60405190808252806020026020018201604052801561036957816020015b610356610cf1565b81526020019060019003908161034e5790505b50905060005b8481101561028c573360056000610387846001610eb8565b81526020810191909152604001600020600401546001600160a01b0316141561048b5760006103b7826001610eb8565b6000818152600560208181526040928390208351610140810185528154815260018201546001600160a01b0390811693820193909352600282015494810194909452600381015482166060850152600481015482166080850152918201541660a0830152600681015460c0830152600781015460e08301526008810154610100830152600981015460ff16151561012083015285519293509185908790811061047057634e487b7160e01b600052603260045260246000fd5b6020908102919091010152610486600186610eb8565b945050505b8061049581610f26565b91505061036f565b600260005414156104f55760405162461bcd60e51b815260206004820152601f60248201527f5265656e7472616e637947756172643a207265656e7472616e742063616c6c0060448201526064015b60405180910390fd5b6002600055836105475760405162461bcd60e51b815260206004820152601c60248201527f5072696365206d757374206265206174206c656173742031207765690000000060448201526064016104ec565b6001600160a01b0381166105585750335b610566600180546001019055565b60006105726001610ce9565b9050604051806101400160405280828152602001886001600160a01b03168152602001878152602001336001600160a01b03168152602001336001600160a01b03168152602001836001600160a01b0316815260200186815260200185815260200184815260200160001515815250600560008381526020019081526020016000206000820151816000015560208201518160010160006101000a8154816001600160a01b0302191690836001600160a01b031602179055506040820151816002015560608201518160030160006101000a8154816001600160a01b0302191690836001600160a01b0316021790555060808201518160040160006101000a8154816001600160a01b0302191690836001600160a01b0316021790555060a08201518160050160006101000a8154816001600160a01b0302191690836001600160a01b0316021790555060c0820151816006015560e0820151816007015561010082015181600801556101208201518160090160006101000a81548160ff02191690831515021790555090505085876001600160a01b0316827f3ba9e110578a104189d30e6215835cb134c130ddbf8ba3878fea95a88856634d336000878b8b8b600060405161078497969594939291906001600160a01b03978816815295871660208701529390951660408501526060840191909152608083015260a082019290925290151560c082015260e00190565b60405180910390a4505060016000555050505050565b600260005414156107ed5760405162461bcd60e51b815260206004820152601f60248201527f5265656e7472616e637947756172643a207265656e7472616e742063616c6c0060448201526064016104ec565b60026000818155828152600560205260409020600681015491810154600782015460089092015490919034841461088e576040805162461bcd60e51b81526020600482015260248101919091527f506c65617365207375626d6974207468652061736b696e67207072696365206960448201527f6e206f7264657220746f20636f6d706c6574652074686520707572636861736560648201526084016104ec565b6000858152600560205260409020600401546001600160a01b03166108fc60646001846108bb8784610f0f565b6108c59190610f0f565b6108cf9190610f0f565b6108d99034610ef0565b6108e39190610ed0565b6040518115909202916000818181858888f1935050505015801561090b573d6000803e3d6000fd5b506000858152600560205260409020600301546001600160a01b03166108fc60646109368534610ef0565b6109409190610ed0565b6040518115909202916000818181858888f19350505050158015610968573d6000803e3d6000fd5b50600085815260056020819052604090912001546001600160a01b03166108fc60646109948434610ef0565b61099e9190610ed0565b6040518115909202916000818181858888f193505050501580156109c6573d6000803e3d6000fd5b506000858152600560205260409081902060049081015491516323b872dd60e01b81526001600160a01b039283169181019190915233602482015260448101859052908716906323b872dd90606401600060405180830381600087803b158015610a2f57600080fd5b505af1158015610a43573d6000803e3d6000fd5b50505060008681526005602052604090206004810180546001600160a01b03191633179055600901805460ff1916600117905550610a85600280546001019055565b6003546001600160a01b03166108fc6064610aa1346001610ef0565b610aab9190610ed0565b6040518115909202916000818181858888f19350505050158015610ad3573d6000803e3d6000fd5b505060016000555050505050565b60606000610aef6001610ce9565b905060008060005b83811015610b52573360056000610b0f846001610eb8565b81526020810191909152604001600020600301546001600160a01b03161415610b4057610b3d600184610eb8565b92505b80610b4a81610f26565b915050610af7565b5060008267ffffffffffffffff811115610b7c57634e487b7160e01b600052604160045260246000fd5b604051908082528060200260200182016040528015610bb557816020015b610ba2610cf1565b815260200190600190039081610b9a5790505b50905060005b8481101561028c573360056000610bd3846001610eb8565b81526020810191909152604001600020600301546001600160a01b03161415610cd7576000610c03826001610eb8565b6000818152600560208181526040928390208351610140810185528154815260018201546001600160a01b0390811693820193909352600282015494810194909452600381015482166060850152600481015482166080850152918201541660a0830152600681015460c0830152600781015460e08301526008810154610100830152600981015460ff161515610120830152855192935091859087908110610cbc57634e487b7160e01b600052603260045260246000fd5b6020908102919091010152610cd2600186610eb8565b945050505b80610ce181610f26565b915050610bbb565b80545b919050565b6040518061014001604052806000815260200160006001600160a01b031681526020016000815260200160006001600160a01b0316815260200160006001600160a01b0316815260200160006001600160a01b031681526020016000815260200160008152602001600081526020016000151581525090565b80356001600160a01b0381168114610cec57600080fd5b60008060408385031215610d93578182fd5b610d9c83610d6a565b946020939093013593505050565b60008060008060008060c08789031215610dc2578182fd5b610dcb87610d6a565b955060208701359450604087013593506060870135925060808701359150610df560a08801610d6a565b90509295509295509295565b602080825282518282018190526000919060409081850190868401855b82811015610eab57815180518552868101516001600160a01b0390811688870152868201518787015260608083015182169087015260808083015182169087015260a0808301519091169086015260c0808201519086015260e080820151908601526101008082015190860152610120908101511515908501526101409093019290850190600101610e1e565b5091979650505050505050565b60008219821115610ecb57610ecb610f41565b500190565b600082610eeb57634e487b7160e01b81526012600452602481fd5b500490565b6000816000190483118215151615610f0a57610f0a610f41565b500290565b600082821015610f2157610f21610f41565b500390565b6000600019821415610f3a57610f3a610f41565b5060010190565b634e487b7160e01b600052601160045260246000fdfea2646970667358221220e1400fcd43a9406cbd6176225cb09a46dd286260f44030b004e6d035fce5472164736f6c63430008030033",
  "linkReferences": {},
  "deployedLinkReferences": {}
}