{
  "_format": "hh-sol-artifact-1",
  "contractName": "NFTMarket",
  "sourceName": "contracts/Market.sol",
  "abi": [
    {
      "inputs": [],
      "stateMutability": "nonpayable",
      "type": "constructor"
    },
    {
      "anonymous": false,
      "inputs": [
        {
          "indexed": true,
          "internalType": "uint256",
          "name": "itemId",
          "type": "uint256"
        },
        {
          "indexed": true,
          "internalType": "address",
          "name": "nftContract",
          "type": "address"
        },
        {
          "indexed": true,
          "internalType": "uint256",
          "name": "tokenId",
          "type": "uint256"
        },
        {
          "indexed": false,
          "internalType": "address",
          "name": "creator",
          "type": "address"
        },
        {
          "indexed": false,
          "internalType": "address",
          "name": "owner",
          "type": "address"
        },
        {
          "indexed": false,
          "internalType": "uint256",
          "name": "price",
          "type": "uint256"
        },
        {
          "indexed": false,
          "internalType": "uint256",
          "name": "royalty",
          "type": "uint256"
        },
        {
          "indexed": false,
          "internalType": "bool",
          "name": "sold",
          "type": "bool"
        }
      ],
      "name": "MarketItemCreated",
      "type": "event"
    },
    {
      "inputs": [
        {
          "internalType": "address",
          "name": "nftContract",
          "type": "address"
        },
        {
          "internalType": "uint256",
          "name": "tokenId",
          "type": "uint256"
        },
        {
          "internalType": "uint256",
          "name": "price",
          "type": "uint256"
        },
        {
          "internalType": "uint256",
          "name": "royalty",
          "type": "uint256"
        }
      ],
      "name": "createMarketItem",
      "outputs": [],
      "stateMutability": "payable",
      "type": "function"
    },
    {
      "inputs": [
        {
          "internalType": "address",
          "name": "nftContract",
          "type": "address"
        },
        {
          "internalType": "uint256",
          "name": "itemId",
          "type": "uint256"
        }
      ],
      "name": "createMarketSale",
      "outputs": [],
      "stateMutability": "payable",
      "type": "function"
    },
    {
      "inputs": [],
      "name": "fetchItemsCreated",
      "outputs": [
        {
          "components": [
            {
              "internalType": "uint256",
              "name": "itemId",
              "type": "uint256"
            },
            {
              "internalType": "address",
              "name": "nftContract",
              "type": "address"
            },
            {
              "internalType": "uint256",
              "name": "tokenId",
              "type": "uint256"
            },
            {
              "internalType": "address payable",
              "name": "creator",
              "type": "address"
            },
            {
              "internalType": "address payable",
              "name": "owner",
              "type": "address"
            },
            {
              "internalType": "uint256",
              "name": "price",
              "type": "uint256"
            },
            {
              "internalType": "uint256",
              "name": "royalty",
              "type": "uint256"
            },
            {
              "internalType": "bool",
              "name": "sold",
              "type": "bool"
            }
          ],
          "internalType": "struct NFTMarket.MarketItem[]",
          "name": "",
          "type": "tuple[]"
        }
      ],
      "stateMutability": "view",
      "type": "function"
    },
    {
      "inputs": [],
      "name": "fetchMarketItems",
      "outputs": [
        {
          "components": [
            {
              "internalType": "uint256",
              "name": "itemId",
              "type": "uint256"
            },
            {
              "internalType": "address",
              "name": "nftContract",
              "type": "address"
            },
            {
              "internalType": "uint256",
              "name": "tokenId",
              "type": "uint256"
            },
            {
              "internalType": "address payable",
              "name": "creator",
              "type": "address"
            },
            {
              "internalType": "address payable",
              "name": "owner",
              "type": "address"
            },
            {
              "internalType": "uint256",
              "name": "price",
              "type": "uint256"
            },
            {
              "internalType": "uint256",
              "name": "royalty",
              "type": "uint256"
            },
            {
              "internalType": "bool",
              "name": "sold",
              "type": "bool"
            }
          ],
          "internalType": "struct NFTMarket.MarketItem[]",
          "name": "",
          "type": "tuple[]"
        }
      ],
      "stateMutability": "view",
      "type": "function"
    },
    {
      "inputs": [],
      "name": "fetchMyNFTs",
      "outputs": [
        {
          "components": [
            {
              "internalType": "uint256",
              "name": "itemId",
              "type": "uint256"
            },
            {
              "internalType": "address",
              "name": "nftContract",
              "type": "address"
            },
            {
              "internalType": "uint256",
              "name": "tokenId",
              "type": "uint256"
            },
            {
              "internalType": "address payable",
              "name": "creator",
              "type": "address"
            },
            {
              "internalType": "address payable",
              "name": "owner",
              "type": "address"
            },
            {
              "internalType": "uint256",
              "name": "price",
              "type": "uint256"
            },
            {
              "internalType": "uint256",
              "name": "royalty",
              "type": "uint256"
            },
            {
              "internalType": "bool",
              "name": "sold",
              "type": "bool"
            }
          ],
          "internalType": "struct NFTMarket.MarketItem[]",
          "name": "",
          "type": "tuple[]"
        }
      ],
      "stateMutability": "view",
      "type": "function"
    }
  ],
  "bytecode": "0x6080604052600060045534801561001557600080fd5b506001600055600380546001600160a01b03191633179055610d428061003c6000396000f3fe60806040526004361061004a5760003560e01c80630f08efe01461004f578063202e37401461007a578063599ba2341461008f578063c23b139e146100a4578063f064c32e146100b7575b600080fd5b34801561005b57600080fd5b506100646100cc565b6040516100719190610bce565b60405180910390f35b34801561008657600080fd5b5061006461027f565b6100a261009d366004610b96565b610471565b005b6100a26100b2366004610b6d565b61067e565b3480156100c357600080fd5b506100646108fa565b606060006100da6001610aec565b905060006100e86002610aec565b6100f26001610aec565b6100fc9190610cc4565b90506000808267ffffffffffffffff81111561012857634e487b7160e01b600052604160045260246000fd5b60405190808252806020026020018201604052801561016157816020015b61014e610af4565b8152602001906001900390816101465790505b50905060005b84811015610276576005600061017e836001610c6d565b815260208101919091526040016000206007015460ff166102645760006101a6826001610c6d565b6000818152600560208181526040928390208351610100810185528154815260018201546001600160a01b0390811693820193909352600282015494810194909452600381015482166060850152600481015490911660808401529081015460a0830152600681015460c0830152600781015460ff16151560e083015285519293509185908790811061024957634e487b7160e01b600052603260045260246000fd5b602090810291909101015261025f600186610c6d565b945050505b8061026e81610cdb565b915050610167565b50935050505090565b6060600061028d6001610aec565b905060008060005b838110156102f05733600560006102ad846001610c6d565b81526020810191909152604001600020600401546001600160a01b031614156102de576102db600184610c6d565b92505b806102e881610cdb565b915050610295565b5060008267ffffffffffffffff81111561031a57634e487b7160e01b600052604160045260246000fd5b60405190808252806020026020018201604052801561035357816020015b610340610af4565b8152602001906001900390816103385790505b50905060005b84811015610276573360056000610371846001610c6d565b81526020810191909152604001600020600401546001600160a01b0316141561045f5760006103a1826001610c6d565b6000818152600560208181526040928390208351610100810185528154815260018201546001600160a01b0390811693820193909352600282015494810194909452600381015482166060850152600481015490911660808401529081015460a0830152600681015460c0830152600781015460ff16151560e083015285519293509185908790811061044457634e487b7160e01b600052603260045260246000fd5b602090810291909101015261045a600186610c6d565b945050505b8061046981610cdb565b915050610359565b600260005414156104c95760405162461bcd60e51b815260206004820152601f60248201527f5265656e7472616e637947756172643a207265656e7472616e742063616c6c0060448201526064015b60405180910390fd5b60026000558161051b5760405162461bcd60e51b815260206004820152601c60248201527f5072696365206d757374206265206174206c656173742031207765690000000060448201526064016104c0565b610529600180546001019055565b60006105356001610aec565b60408051610100810182528281526001600160a01b0380891660208084018281528486018b815233606087018181526080880182815260a089018e815260c08a018e8152600060e08c018181528e82526005998a90528d82209c518d55975160018d018054918d166001600160a01b0319928316179055965160028d0155935160038c018054918c16918816919091179055915160048b01805491909a1695169490941790975591519387019390935593516006860155516007909401805494151560ff19909516949094179093559251939450879385927fd0bb1eaea8ab6cd0c288f209757734c5e280d8f4e05f93b1db82da8db72787589261066a928a908a9083906001600160a01b03958616815293909416602084015260408301919091526060820152901515608082015260a00190565b60405180910390a450506001600055505050565b600260005414156106d15760405162461bcd60e51b815260206004820152601f60248201527f5265656e7472616e637947756172643a207265656e7472616e742063616c6c0060448201526064016104c0565b60026000818155828152600560208190526040909120908101549181015460069091015434831461076c576040805162461bcd60e51b81526020600482015260248101919091527f506c65617365207375626d6974207468652061736b696e67207072696365206960448201527f6e206f7264657220746f20636f6d706c6574652074686520707572636861736560648201526084016104c0565b6000848152600560205260409020600401546001600160a01b03166108fc60646107968482610cc4565b6107a09034610ca5565b6107aa9190610c85565b6040518115909202916000818181858888f193505050501580156107d2573d6000803e3d6000fd5b506000848152600560205260409020600301546001600160a01b03166108fc60646107fd8434610ca5565b6108079190610c85565b6040518115909202916000818181858888f1935050505015801561082f573d6000803e3d6000fd5b506000848152600560205260409081902060049081015491516323b872dd60e01b81526001600160a01b039283169181019190915233602482015260448101849052908616906323b872dd90606401600060405180830381600087803b15801561089857600080fd5b505af11580156108ac573d6000803e3d6000fd5b50505060008581526005602052604090206004810180546001600160a01b03191633179055600701805460ff19166001179055506108ee600280546001019055565b50506001600055505050565b606060006109086001610aec565b905060008060005b8381101561096b573360056000610928846001610c6d565b81526020810191909152604001600020600301546001600160a01b0316141561095957610956600184610c6d565b92505b8061096381610cdb565b915050610910565b5060008267ffffffffffffffff81111561099557634e487b7160e01b600052604160045260246000fd5b6040519080825280602002602001820160405280156109ce57816020015b6109bb610af4565b8152602001906001900390816109b35790505b50905060005b848110156102765733600560006109ec846001610c6d565b81526020810191909152604001600020600301546001600160a01b03161415610ada576000610a1c826001610c6d565b6000818152600560208181526040928390208351610100810185528154815260018201546001600160a01b0390811693820193909352600282015494810194909452600381015482166060850152600481015490911660808401529081015460a0830152600681015460c0830152600781015460ff16151560e0830152855192935091859087908110610abf57634e487b7160e01b600052603260045260246000fd5b6020908102919091010152610ad5600186610c6d565b945050505b80610ae481610cdb565b9150506109d4565b80545b919050565b6040518061010001604052806000815260200160006001600160a01b031681526020016000815260200160006001600160a01b0316815260200160006001600160a01b0316815260200160008152602001600081526020016000151581525090565b80356001600160a01b0381168114610aef57600080fd5b60008060408385031215610b7f578182fd5b610b8883610b56565b946020939093013593505050565b60008060008060808587031215610bab578182fd5b610bb485610b56565b966020860135965060408601359560600135945092505050565b602080825282518282018190526000919060409081850190868401855b82811015610c6057815180518552868101516001600160a01b039081168887015286820151878701526060808301518216908701526080808301519091169086015260a0808201519086015260c0808201519086015260e0908101511515908501526101009093019290850190600101610beb565b5091979650505050505050565b60008219821115610c8057610c80610cf6565b500190565b600082610ca057634e487b7160e01b81526012600452602481fd5b500490565b6000816000190483118215151615610cbf57610cbf610cf6565b500290565b600082821015610cd657610cd6610cf6565b500390565b6000600019821415610cef57610cef610cf6565b5060010190565b634e487b7160e01b600052601160045260246000fdfea26469706673582212202229212935580f59f05ef91b5380c0f479ae758c38abba3b7b45403fe333db0d64736f6c63430008030033",
  "linkReferences": {},
  "deployedLinkReferences": {}
}